{
  "contractName": "GoodNFTimers",
  "abi": [
    {
      "inputs": [
        {
          "internalType": "address",
          "name": "GTCAddress",
          "type": "address"
        }
      ],
      "stateMutability": "nonpayable",
      "type": "constructor"
    },
    {
      "anonymous": false,
      "inputs": [
        {
          "indexed": true,
          "internalType": "address",
          "name": "owner",
          "type": "address"
        },
        {
          "indexed": true,
          "internalType": "address",
          "name": "approved",
          "type": "address"
        },
        {
          "indexed": true,
          "internalType": "uint256",
          "name": "tokenId",
          "type": "uint256"
        }
      ],
      "name": "Approval",
      "type": "event"
    },
    {
      "anonymous": false,
      "inputs": [
        {
          "indexed": true,
          "internalType": "address",
          "name": "owner",
          "type": "address"
        },
        {
          "indexed": true,
          "internalType": "address",
          "name": "operator",
          "type": "address"
        },
        {
          "indexed": false,
          "internalType": "bool",
          "name": "approved",
          "type": "bool"
        }
      ],
      "name": "ApprovalForAll",
      "type": "event"
    },
    {
      "anonymous": false,
      "inputs": [
        {
          "indexed": true,
          "internalType": "address",
          "name": "previousOwner",
          "type": "address"
        },
        {
          "indexed": true,
          "internalType": "address",
          "name": "newOwner",
          "type": "address"
        }
      ],
      "name": "OwnershipTransferred",
      "type": "event"
    },
    {
      "anonymous": false,
      "inputs": [
        {
          "indexed": true,
          "internalType": "address",
          "name": "from",
          "type": "address"
        },
        {
          "indexed": true,
          "internalType": "address",
          "name": "to",
          "type": "address"
        },
        {
          "indexed": true,
          "internalType": "uint256",
          "name": "tokenId",
          "type": "uint256"
        }
      ],
      "name": "Transfer",
      "type": "event"
    },
    {
      "inputs": [],
      "name": "GTC",
      "outputs": [
        {
          "internalType": "contract IERC20",
          "name": "",
          "type": "address"
        }
      ],
      "stateMutability": "view",
      "type": "function",
      "constant": true
    },
    {
      "inputs": [],
      "name": "_initBaseURI",
      "outputs": [
        {
          "internalType": "string",
          "name": "",
          "type": "string"
        }
      ],
      "stateMutability": "view",
      "type": "function",
      "constant": true
    },
    {
      "inputs": [],
      "name": "_name",
      "outputs": [
        {
          "internalType": "string",
          "name": "",
          "type": "string"
        }
      ],
      "stateMutability": "view",
      "type": "function",
      "constant": true
    },
    {
      "inputs": [],
      "name": "_symbol",
      "outputs": [
        {
          "internalType": "string",
          "name": "",
          "type": "string"
        }
      ],
      "stateMutability": "view",
      "type": "function",
      "constant": true
    },
    {
      "inputs": [
        {
          "internalType": "address",
          "name": "to",
          "type": "address"
        },
        {
          "internalType": "uint256",
          "name": "tokenId",
          "type": "uint256"
        }
      ],
      "name": "approve",
      "outputs": [],
      "stateMutability": "nonpayable",
      "type": "function"
    },
    {
      "inputs": [
        {
          "internalType": "address",
          "name": "owner",
          "type": "address"
        }
      ],
      "name": "balanceOf",
      "outputs": [
        {
          "internalType": "uint256",
          "name": "",
          "type": "uint256"
        }
      ],
      "stateMutability": "view",
      "type": "function",
      "constant": true
    },
    {
      "inputs": [],
      "name": "baseExtension",
      "outputs": [
        {
          "internalType": "string",
          "name": "",
          "type": "string"
        }
      ],
      "stateMutability": "view",
      "type": "function",
      "constant": true
    },
    {
      "inputs": [],
      "name": "baseURI",
      "outputs": [
        {
          "internalType": "string",
          "name": "",
          "type": "string"
        }
      ],
      "stateMutability": "view",
      "type": "function",
      "constant": true
    },
    {
      "inputs": [],
      "name": "costGTC",
      "outputs": [
        {
          "internalType": "uint256",
          "name": "",
          "type": "uint256"
        }
      ],
      "stateMutability": "view",
      "type": "function",
      "constant": true
    },
    {
      "inputs": [],
      "name": "costONE",
      "outputs": [
        {
          "internalType": "uint256",
          "name": "",
          "type": "uint256"
        }
      ],
      "stateMutability": "view",
      "type": "function",
      "constant": true
    },
    {
      "inputs": [
        {
          "internalType": "uint256",
          "name": "tokenId",
          "type": "uint256"
        }
      ],
      "name": "getApproved",
      "outputs": [
        {
          "internalType": "address",
          "name": "",
          "type": "address"
        }
      ],
      "stateMutability": "view",
      "type": "function",
      "constant": true
    },
    {
      "inputs": [
        {
          "internalType": "address",
          "name": "owner",
          "type": "address"
        },
        {
          "internalType": "address",
          "name": "operator",
          "type": "address"
        }
      ],
      "name": "isApprovedForAll",
      "outputs": [
        {
          "internalType": "bool",
          "name": "",
          "type": "bool"
        }
      ],
      "stateMutability": "view",
      "type": "function",
      "constant": true
    },
    {
      "inputs": [],
      "name": "maxMintAmount",
      "outputs": [
        {
          "internalType": "uint256",
          "name": "",
          "type": "uint256"
        }
      ],
      "stateMutability": "view",
      "type": "function",
      "constant": true
    },
    {
      "inputs": [],
      "name": "maxSupply",
      "outputs": [
        {
          "internalType": "uint256",
          "name": "",
          "type": "uint256"
        }
      ],
      "stateMutability": "view",
      "type": "function",
      "constant": true
    },
    {
      "inputs": [],
      "name": "name",
      "outputs": [
        {
          "internalType": "string",
          "name": "",
          "type": "string"
        }
      ],
      "stateMutability": "view",
      "type": "function",
      "constant": true
    },
    {
      "inputs": [],
      "name": "owner",
      "outputs": [
        {
          "internalType": "address",
          "name": "",
          "type": "address"
        }
      ],
      "stateMutability": "view",
      "type": "function",
      "constant": true
    },
    {
      "inputs": [
        {
          "internalType": "uint256",
          "name": "tokenId",
          "type": "uint256"
        }
      ],
      "name": "ownerOf",
      "outputs": [
        {
          "internalType": "address",
          "name": "",
          "type": "address"
        }
      ],
      "stateMutability": "view",
      "type": "function",
      "constant": true
    },
    {
      "inputs": [],
      "name": "paused",
      "outputs": [
        {
          "internalType": "bool",
          "name": "",
          "type": "bool"
        }
      ],
      "stateMutability": "view",
      "type": "function",
      "constant": true
    },
    {
      "inputs": [],
      "name": "renounceOwnership",
      "outputs": [],
      "stateMutability": "nonpayable",
      "type": "function"
    },
    {
      "inputs": [
        {
          "internalType": "address",
          "name": "from",
          "type": "address"
        },
        {
          "internalType": "address",
          "name": "to",
          "type": "address"
        },
        {
          "internalType": "uint256",
          "name": "tokenId",
          "type": "uint256"
        }
      ],
      "name": "safeTransferFrom",
      "outputs": [],
      "stateMutability": "nonpayable",
      "type": "function"
    },
    {
      "inputs": [
        {
          "internalType": "address",
          "name": "from",
          "type": "address"
        },
        {
          "internalType": "address",
          "name": "to",
          "type": "address"
        },
        {
          "internalType": "uint256",
          "name": "tokenId",
          "type": "uint256"
        },
        {
          "internalType": "bytes",
          "name": "_data",
          "type": "bytes"
        }
      ],
      "name": "safeTransferFrom",
      "outputs": [],
      "stateMutability": "nonpayable",
      "type": "function"
    },
    {
      "inputs": [
        {
          "internalType": "address",
          "name": "operator",
          "type": "address"
        },
        {
          "internalType": "bool",
          "name": "approved",
          "type": "bool"
        }
      ],
      "name": "setApprovalForAll",
      "outputs": [],
      "stateMutability": "nonpayable",
      "type": "function"
    },
    {
      "inputs": [
        {
          "internalType": "bytes4",
          "name": "interfaceId",
          "type": "bytes4"
        }
      ],
      "name": "supportsInterface",
      "outputs": [
        {
          "internalType": "bool",
          "name": "",
          "type": "bool"
        }
      ],
      "stateMutability": "view",
      "type": "function",
      "constant": true
    },
    {
      "inputs": [],
      "name": "symbol",
      "outputs": [
        {
          "internalType": "string",
          "name": "",
          "type": "string"
        }
      ],
      "stateMutability": "view",
      "type": "function",
      "constant": true
    },
    {
      "inputs": [
        {
          "internalType": "uint256",
          "name": "index",
          "type": "uint256"
        }
      ],
      "name": "tokenByIndex",
      "outputs": [
        {
          "internalType": "uint256",
          "name": "",
          "type": "uint256"
        }
      ],
      "stateMutability": "view",
      "type": "function",
      "constant": true
    },
    {
      "inputs": [
        {
          "internalType": "address",
          "name": "owner",
          "type": "address"
        },
        {
          "internalType": "uint256",
          "name": "index",
          "type": "uint256"
        }
      ],
      "name": "tokenOfOwnerByIndex",
      "outputs": [
        {
          "internalType": "uint256",
          "name": "",
          "type": "uint256"
        }
      ],
      "stateMutability": "view",
      "type": "function",
      "constant": true
    },
    {
      "inputs": [],
      "name": "totalSupply",
      "outputs": [
        {
          "internalType": "uint256",
          "name": "",
          "type": "uint256"
        }
      ],
      "stateMutability": "view",
      "type": "function",
      "constant": true
    },
    {
      "inputs": [
        {
          "internalType": "address",
          "name": "from",
          "type": "address"
        },
        {
          "internalType": "address",
          "name": "to",
          "type": "address"
        },
        {
          "internalType": "uint256",
          "name": "tokenId",
          "type": "uint256"
        }
      ],
      "name": "transferFrom",
      "outputs": [],
      "stateMutability": "nonpayable",
      "type": "function"
    },
    {
      "inputs": [
        {
          "internalType": "address",
          "name": "newOwner",
          "type": "address"
        }
      ],
      "name": "transferOwnership",
      "outputs": [],
      "stateMutability": "nonpayable",
      "type": "function"
    },
    {
      "inputs": [
        {
          "internalType": "address",
          "name": "_to",
          "type": "address"
        },
        {
          "internalType": "uint256",
          "name": "_mintAmount",
          "type": "uint256"
        }
      ],
      "name": "mint",
      "outputs": [],
      "stateMutability": "payable",
      "type": "function",
      "payable": true
    },
    {
      "inputs": [
        {
          "internalType": "address",
          "name": "_to",
          "type": "address"
        },
        {
          "internalType": "uint256",
          "name": "_mintAmount",
          "type": "uint256"
        }
      ],
      "name": "GTCmint",
      "outputs": [],
      "stateMutability": "nonpayable",
      "type": "function"
    },
    {
      "inputs": [
        {
          "internalType": "address",
          "name": "_owner",
          "type": "address"
        }
      ],
      "name": "walletOfOwner",
      "outputs": [
        {
          "internalType": "uint256[]",
          "name": "",
          "type": "uint256[]"
        }
      ],
      "stateMutability": "view",
      "type": "function",
      "constant": true
    },
    {
      "inputs": [
        {
          "internalType": "uint256",
          "name": "tokenId",
          "type": "uint256"
        }
      ],
      "name": "tokenURI",
      "outputs": [
        {
          "internalType": "string",
          "name": "",
          "type": "string"
        }
      ],
      "stateMutability": "view",
      "type": "function",
      "constant": true
    },
    {
      "inputs": [
        {
          "internalType": "string",
          "name": "_newBaseURI",
          "type": "string"
        }
      ],
      "name": "setBaseURI",
      "outputs": [],
      "stateMutability": "nonpayable",
      "type": "function"
    },
    {
      "inputs": [
        {
          "internalType": "bool",
          "name": "_state",
          "type": "bool"
        }
      ],
      "name": "pause",
      "outputs": [],
      "stateMutability": "nonpayable",
      "type": "function"
    },
    {
      "inputs": [],
      "name": "withdrawONE",
      "outputs": [],
      "stateMutability": "payable",
      "type": "function",
      "payable": true
    },
    {
      "inputs": [],
      "name": "withdrawGTC",
      "outputs": [],
      "stateMutability": "payable",
      "type": "function",
      "payable": true
    }
  ],
  "bytecode": "0x60c06040526005608081905264173539b7b760d91b60a09081526200002891600d919062000ab6565b506816c4abbebea0100000600e908155675fc1b97136320000600f556110ad601055600a6011556012805460ff19169055604080518082019091528181526d476f6f64204e462054696d65727360901b60209091019081526200008f916013919062000ab6565b506040805180820190915260048082526311d3919560e21b6020909201918252620000bd9160149162000ab6565b50604051806080016040528060518152602001620035ee605191398051620000ee9160159160209091019062000ab6565b50348015620000fc57600080fd5b506040516200363f3803806200363f8339810160408190526200011f9162000b5c565b601380546200012e9062000dc3565b80601f01602080910402602001604051908101604052809291908181526020018280546200015c9062000dc3565b8015620001ad5780601f106200018157610100808354040283529160200191620001ad565b820191906000526020600020905b8154815290600101906020018083116200018f57829003601f168201915b505050505060148054620001c19062000dc3565b80601f0160208091040260200160405190810160405280929190818152602001828054620001ef9062000dc3565b8015620002405780601f10620002145761010080835404028352916020019162000240565b820191906000526020600020905b8154815290600101906020018083116200022257829003601f168201915b505084516200025a93506000925060208601915062000ab6565b5080516200027090600190602084019062000ab6565b5050506200028d620002876200035a60201b60201c565b6200035e565b6200032b60158054620002a09062000dc3565b80601f0160208091040260200160405190810160405280929190818152602001828054620002ce9062000dc3565b80156200031f5780601f10620002f3576101008083540402835291602001916200031f565b820191906000526020600020905b8154815290600101906020018083116200030157829003601f168201915b5050620003b092505050565b600b80546001600160a01b0319166001600160a01b0383161790556200035333600262000418565b5062000e34565b3390565b600a80546001600160a01b038381166001600160a01b0319831681179093556040519116919082907f8be0079c531659141344cd1fd0a4f28419497f9722a3daafe3b4186f6b6457e090600090a35050565b620003ba6200035a565b6001600160a01b0316620003cd620004ee565b6001600160a01b031614620003ff5760405162461bcd60e51b8152600401620003f69062000d37565b60405180910390fd5b80516200041490600c90602084019062000ab6565b5050565b600062000424620004fd565b60125490915060ff16156200043857600080fd5b600082116200044657600080fd5b6011548211156200045657600080fd5b60105462000465838362000d6c565b11156200047157600080fd5b6200047b620004ee565b6001600160a01b0316336001600160a01b031614620004b15781600e54620004a4919062000d87565b341015620004b157600080fd5b60015b828111620004e857620004d384620004cd838562000d6c565b62000503565b80620004df8162000e00565b915050620004b4565b50505050565b600a546001600160a01b031690565b60085490565b620004148282604051806020016040528060008152506200052560201b60201c565b62000531838362000564565b6200054060008484846200064f565b6200055f5760405162461bcd60e51b8152600401620003f69062000c2f565b505050565b6001600160a01b0382166200058d5760405162461bcd60e51b8152600401620003f69062000d02565b620005988162000788565b15620005b85760405162461bcd60e51b8152600401620003f69062000c81565b620005c660008383620007a5565b6001600160a01b0382166000908152600360205260408120805460019290620005f190849062000d6c565b909155505060008181526002602052604080822080546001600160a01b0319166001600160a01b03861690811790915590518392907fddf252ad1be2c89b69c2b068fc378daa952ba7f163c4a11628f55a4df523b3ef908290a45050565b600062000670846001600160a01b03166200084960201b6200125c1760201c565b156200077c576001600160a01b03841663150b7a026200068f6200035a565b8786866040518563ffffffff1660e01b8152600401620006b3949392919062000bb6565b602060405180830381600087803b158015620006ce57600080fd5b505af192505050801562000701575060408051601f3d908101601f19168201909252620006fe9181019062000b8c565b60015b62000761573d80801562000732576040519150601f19603f3d011682016040523d82523d6000602084013e62000737565b606091505b508051620007595760405162461bcd60e51b8152600401620003f69062000c2f565b805181602001fd5b6001600160e01b031916630a85bd0160e11b14905062000780565b5060015b949350505050565b6000908152600260205260409020546001600160a01b0316151590565b620007bd8383836200055f60201b6200080e1760201c565b6001600160a01b038316620007dd57620007d7816200084f565b62000803565b816001600160a01b0316836001600160a01b031614620008035762000803838262000893565b6001600160a01b03821662000823576200081d8162000940565b6200055f565b826001600160a01b0316826001600160a01b0316146200055f576200055f828262000a1e565b3b151590565b600880546000838152600960205260408120829055600182018355919091527ff3f7a9fe364faab93b216da50a3214154f22a0a2b415b23a84c8169e8b636ee30155565b60006001620008ad8462000a6f60201b62000be11760201c565b620008b9919062000da9565b6000838152600760205260409020549091508082146200090d576001600160a01b03841660009081526006602090815260408083208584528252808320548484528184208190558352600790915290208190555b5060009182526007602090815260408084208490556001600160a01b039094168352600681528383209183525290812055565b600854600090620009549060019062000da9565b600083815260096020526040812054600880549394509092849081106200098b57634e487b7160e01b600052603260045260246000fd5b906000526020600020015490508060088381548110620009bb57634e487b7160e01b600052603260045260246000fd5b600091825260208083209091019290925582815260099091526040808220849055858252812055600880548062000a0257634e487b7160e01b600052603160045260246000fd5b6001900381819060005260206000200160009055905550505050565b600062000a368362000a6f60201b62000be11760201c565b6001600160a01b039093166000908152600660209081526040808320868452825280832085905593825260079052919091209190915550565b60006001600160a01b03821662000a9a5760405162461bcd60e51b8152600401620003f69062000cb8565b506001600160a01b031660009081526003602052604090205490565b82805462000ac49062000dc3565b90600052602060002090601f01602090048101928262000ae8576000855562000b33565b82601f1062000b0357805160ff191683800117855562000b33565b8280016001018555821562000b33579182015b8281111562000b3357825182559160200191906001019062000b16565b5062000b4192915062000b45565b5090565b5b8082111562000b41576000815560010162000b46565b60006020828403121562000b6e578081fd5b81516001600160a01b038116811462000b85578182fd5b9392505050565b60006020828403121562000b9e578081fd5b81516001600160e01b03198116811462000b85578182fd5b600060018060a01b0380871683526020818716818501528560408501526080606085015284519150816080850152825b8281101562000c045785810182015185820160a00152810162000be6565b8281111562000c16578360a084870101525b5050601f01601f19169190910160a00195945050505050565b60208082526032908201527f4552433732313a207472616e7366657220746f206e6f6e20455243373231526560408201527131b2b4bb32b91034b6b83632b6b2b73a32b960711b606082015260800190565b6020808252601c908201527f4552433732313a20746f6b656e20616c7265616479206d696e74656400000000604082015260600190565b6020808252602a908201527f4552433732313a2062616c616e636520717565727920666f7220746865207a65604082015269726f206164647265737360b01b606082015260800190565b6020808252818101527f4552433732313a206d696e7420746f20746865207a65726f2061646472657373604082015260600190565b6020808252818101527f4f776e61626c653a2063616c6c6572206973206e6f7420746865206f776e6572604082015260600190565b6000821982111562000d825762000d8262000e1e565b500190565b600081600019048311821515161562000da45762000da462000e1e565b500290565b60008282101562000dbe5762000dbe62000e1e565b500390565b60028104600182168062000dd857607f821691505b6020821081141562000dfa57634e487b7160e01b600052602260045260246000fd5b50919050565b600060001982141562000e175762000e1762000e1e565b5060010190565b634e487b7160e01b600052601160045260246000fd5b6127aa8062000e446000396000f3fe60806040526004361061021a5760003560e01c80636352211e11610123578063a22cb465116100ab578063c87b56dd1161006f578063c87b56dd14610594578063d28d8852146105b4578063d5abeb01146105c9578063e985e9c5146105de578063f2fde38b146105fe5761021a565b8063a22cb46514610522578063a5fd01d514610542578063b09f12661461054a578063b88d4fde1461055f578063c66828621461057f5761021a565b80637345b674116100f25780637345b674146104bb57806382d471f3146104db5780638da5cb5b146104f057806395d89b411461050557806396124b1f1461051a5761021a565b80636352211e146104515780636c0360eb1461047157806370a0823114610486578063715018a6146104a65761021a565b806323b872dd116101a657806342842e0e1161017557806342842e0e146103af578063438b6300146103cf5780634f6ccce7146103fc57806355f804b31461041c5780635c975abb1461043c5761021a565b806323b872dd1461034757806328a2cb18146103675780632f745c591461037c57806340c10f191461039c5761021a565b8063095ea7b3116101ed578063095ea7b3146102c657806318160ddd146102e65780631de18b36146103085780632289fa981461031d578063239c70ae146103325761021a565b806301ffc9a71461021f57806302329a291461025557806306fdde0314610277578063081812fc14610299575b600080fd5b34801561022b57600080fd5b5061023f61023a366004611e30565b61061e565b60405161024c91906120b8565b60405180910390f35b34801561026157600080fd5b50610275610270366004611df8565b61064b565b005b34801561028357600080fd5b5061028c6106a6565b60405161024c91906120c3565b3480156102a557600080fd5b506102b96102b4366004611eae565b610738565b60405161024c9190611fcc565b3480156102d257600080fd5b506102756102e1366004611dcf565b61077b565b3480156102f257600080fd5b506102fb610813565b60405161024c9190612601565b34801561031457600080fd5b5061028c610819565b34801561032957600080fd5b506102fb6108a7565b34801561033e57600080fd5b506102fb6108ad565b34801561035357600080fd5b50610275610362366004611ce5565b6108b3565b34801561037357600080fd5b506102b96108eb565b34801561038857600080fd5b506102fb610397366004611dcf565b6108fa565b6102756103aa366004611dcf565b61094c565b3480156103bb57600080fd5b506102756103ca366004611ce5565b610a0c565b3480156103db57600080fd5b506103ef6103ea366004611c99565b610a27565b60405161024c9190612074565b34801561040857600080fd5b506102fb610417366004611eae565b610ae5565b34801561042857600080fd5b50610275610437366004611e68565b610b40565b34801561044857600080fd5b5061023f610b96565b34801561045d57600080fd5b506102b961046c366004611eae565b610b9f565b34801561047d57600080fd5b5061028c610bd4565b34801561049257600080fd5b506102fb6104a1366004611c99565b610be1565b3480156104b257600080fd5b50610275610c25565b3480156104c757600080fd5b506102756104d6366004611dcf565b610c70565b3480156104e757600080fd5b506102fb610e34565b3480156104fc57600080fd5b506102b9610e3a565b34801561051157600080fd5b5061028c610e49565b610275610e58565b34801561052e57600080fd5b5061027561053d366004611d99565b610ec1565b610275610f8f565b34801561055657600080fd5b5061028c6110d4565b34801561056b57600080fd5b5061027561057a366004611d20565b6110e1565b34801561058b57600080fd5b5061028c61111a565b3480156105a057600080fd5b5061028c6105af366004611eae565b611127565b3480156105c057600080fd5b5061028c6111ad565b3480156105d557600080fd5b506102fb6111ba565b3480156105ea57600080fd5b5061023f6105f9366004611cb3565b6111c0565b34801561060a57600080fd5b50610275610619366004611c99565b6111ee565b60006001600160e01b0319821663780e9d6360e01b1480610643575061064382611262565b90505b919050565b6106536112a2565b6001600160a01b0316610664610e3a565b6001600160a01b0316146106935760405162461bcd60e51b815260040161068a90612456565b60405180910390fd5b6012805460ff1916911515919091179055565b6060600080546106b5906126a4565b80601f01602080910402602001604051908101604052809291908181526020018280546106e1906126a4565b801561072e5780601f106107035761010080835404028352916020019161072e565b820191906000526020600020905b81548152906001019060200180831161071157829003601f168201915b5050505050905090565b6000610743826112a6565b61075f5760405162461bcd60e51b815260040161068a9061240a565b506000908152600460205260409020546001600160a01b031690565b600061078682610b9f565b9050806001600160a01b0316836001600160a01b031614156107ba5760405162461bcd60e51b815260040161068a90612523565b806001600160a01b03166107cc6112a2565b6001600160a01b031614806107e857506107e8816105f96112a2565b6108045760405162461bcd60e51b815260040161068a906122b7565b61080e83836112c3565b505050565b60085490565b60158054610826906126a4565b80601f0160208091040260200160405190810160405280929190818152602001828054610852906126a4565b801561089f5780601f106108745761010080835404028352916020019161089f565b820191906000526020600020905b81548152906001019060200180831161088257829003601f168201915b505050505081565b600f5481565b60115481565b6108c46108be6112a2565b82611331565b6108e05760405162461bcd60e51b815260040161068a90612564565b61080e8383836113b6565b600b546001600160a01b031681565b600061090583610be1565b82106109235760405162461bcd60e51b815260040161068a906120d6565b506001600160a01b03919091166000908152600660209081526040808320938352929052205490565b6000610956610813565b60125490915060ff161561096957600080fd5b6000821161097657600080fd5b60115482111561098557600080fd5b6010546109928383612616565b111561099d57600080fd5b6109a5610e3a565b6001600160a01b0316336001600160a01b0316146109d75781600e546109cb9190612642565b3410156109d757600080fd5b60015b828111610a06576109f4846109ef8385612616565b6114e3565b806109fe816126df565b9150506109da565b50505050565b61080e838383604051806020016040528060008152506110e1565b60606000610a3483610be1565b905060008167ffffffffffffffff811115610a5f57634e487b7160e01b600052604160045260246000fd5b604051908082528060200260200182016040528015610a88578160200160208202803683370190505b50905060005b82811015610add57610aa085826108fa565b828281518110610ac057634e487b7160e01b600052603260045260246000fd5b602090810291909101015280610ad5816126df565b915050610a8e565b509392505050565b6000610aef610813565b8210610b0d5760405162461bcd60e51b815260040161068a906125b5565b60088281548110610b2e57634e487b7160e01b600052603260045260246000fd5b90600052602060002001549050919050565b610b486112a2565b6001600160a01b0316610b59610e3a565b6001600160a01b031614610b7f5760405162461bcd60e51b815260040161068a90612456565b8051610b9290600c906020840190611b79565b5050565b60125460ff1681565b6000818152600260205260408120546001600160a01b0316806106435760405162461bcd60e51b815260040161068a9061238c565b600c8054610826906126a4565b60006001600160a01b038216610c095760405162461bcd60e51b815260040161068a90612342565b506001600160a01b031660009081526003602052604090205490565b610c2d6112a2565b6001600160a01b0316610c3e610e3a565b6001600160a01b031614610c645760405162461bcd60e51b815260040161068a90612456565b610c6e60006114fd565b565b6000610c7a610813565b60125490915060ff1615610c8d57600080fd5b60008211610c9a57600080fd5b601154821115610ca957600080fd5b601054610cb68383612616565b1115610cc157600080fd5b6000600f5483610cd19190612642565b600b54604051636eb1769f60e11b81529192506000916001600160a01b039091169063dd62ed3e90610d099033903090600401611fe0565b60206040518083038186803b158015610d2157600080fd5b505afa158015610d35573d6000803e3d6000fd5b505050506040513d601f19601f82011682018060405250810190610d599190611ec6565b905081811015610d7b5760405162461bcd60e51b815260040161068a90612314565b600b546040516323b872dd60e01b81526001600160a01b03909116906323b872dd90610daf90339030908790600401611ffa565b602060405180830381600087803b158015610dc957600080fd5b505af1158015610ddd573d6000803e3d6000fd5b505050506040513d601f19601f82011682018060405250810190610e019190611e14565b5060015b848111610e2c57610e1a866109ef8387612616565b80610e24816126df565b915050610e05565b505050505050565b600e5481565b600a546001600160a01b031690565b6060600180546106b5906126a4565b610e606112a2565b6001600160a01b0316610e71610e3a565b6001600160a01b031614610e975760405162461bcd60e51b815260040161068a90612456565b6040514790339082156108fc029083906000818181858888f19350505050610ebe57600080fd5b50565b610ec96112a2565b6001600160a01b0316826001600160a01b03161415610efa5760405162461bcd60e51b815260040161068a90612234565b8060056000610f076112a2565b6001600160a01b03908116825260208083019390935260409182016000908120918716808252919093529120805460ff191692151592909217909155610f4b6112a2565b6001600160a01b03167f17307eab39ab6107e8899845ad3d59bd9653f200f220920489ca2b5937696c3183604051610f8391906120b8565b60405180910390a35050565b610f976112a2565b6001600160a01b0316610fa8610e3a565b6001600160a01b031614610fce5760405162461bcd60e51b815260040161068a90612456565b600b546040516370a0823160e01b81526000916001600160a01b0316906370a0823190610fff903090600401611fcc565b60206040518083038186803b15801561101757600080fd5b505afa15801561102b573d6000803e3d6000fd5b505050506040513d601f19601f8201168201806040525081019061104f9190611ec6565b600b5460405163a9059cbb60e01b81529192506001600160a01b03169063a9059cbb90611082903390859060040161205b565b602060405180830381600087803b15801561109c57600080fd5b505af11580156110b0573d6000803e3d6000fd5b505050506040513d601f19601f82011682018060405250810190610b929190611e14565b60148054610826906126a4565b6110f26110ec6112a2565b83611331565b61110e5760405162461bcd60e51b815260040161068a90612564565b610a068484848461154f565b600d8054610826906126a4565b6060611132826112a6565b61114e5760405162461bcd60e51b815260040161068a9061248b565b6000611158611582565b9050600081511161117857604051806020016040528060008152506111a6565b8061118284611591565b600d60405160200161119693929190611f0a565b6040516020818303038152906040525b9392505050565b60138054610826906126a4565b60105481565b6001600160a01b03918216600090815260056020908152604080832093909416825291909152205460ff1690565b6111f66112a2565b6001600160a01b0316611207610e3a565b6001600160a01b03161461122d5760405162461bcd60e51b815260040161068a90612456565b6001600160a01b0381166112535760405162461bcd60e51b815260040161068a90612173565b610ebe816114fd565b3b151590565b60006001600160e01b031982166380ac58cd60e01b148061129357506001600160e01b03198216635b5e139f60e01b145b806106435750610643826116ac565b3390565b6000908152600260205260409020546001600160a01b0316151590565b600081815260046020526040902080546001600160a01b0319166001600160a01b03841690811790915581906112f882610b9f565b6001600160a01b03167f8c5be1e5ebec7d5bd14f71427d1e84f3dd0314c0f7b2291e5b200ac8c7c3b92560405160405180910390a45050565b600061133c826112a6565b6113585760405162461bcd60e51b815260040161068a9061226b565b600061136383610b9f565b9050806001600160a01b0316846001600160a01b0316148061139e5750836001600160a01b031661139384610738565b6001600160a01b0316145b806113ae57506113ae81856111c0565b949350505050565b826001600160a01b03166113c982610b9f565b6001600160a01b0316146113ef5760405162461bcd60e51b815260040161068a906124da565b6001600160a01b0382166114155760405162461bcd60e51b815260040161068a906121f0565b6114208383836116c5565b61142b6000826112c3565b6001600160a01b0383166000908152600360205260408120805460019290611454908490612661565b90915550506001600160a01b0382166000908152600360205260408120805460019290611482908490612616565b909155505060008181526002602052604080822080546001600160a01b0319166001600160a01b0386811691821790925591518493918716917fddf252ad1be2c89b69c2b068fc378daa952ba7f163c4a11628f55a4df523b3ef91a4505050565b610b9282826040518060200160405280600081525061174e565b600a80546001600160a01b038381166001600160a01b0319831681179093556040519116919082907f8be0079c531659141344cd1fd0a4f28419497f9722a3daafe3b4186f6b6457e090600090a35050565b61155a8484846113b6565b61156684848484611781565b610a065760405162461bcd60e51b815260040161068a90612121565b6060600c80546106b5906126a4565b6060816115b657506040805180820190915260018152600360fc1b6020820152610646565b8160005b81156115e057806115ca816126df565b91506115d99050600a8361262e565b91506115ba565b60008167ffffffffffffffff81111561160957634e487b7160e01b600052604160045260246000fd5b6040519080825280601f01601f191660200182016040528015611633576020820181803683370190505b5090505b84156113ae57611648600183612661565b9150611655600a866126fa565b611660906030612616565b60f81b81838151811061168357634e487b7160e01b600052603260045260246000fd5b60200101906001600160f81b031916908160001a9053506116a5600a8661262e565b9450611637565b6001600160e01b031981166301ffc9a760e01b14919050565b6116d083838361080e565b6001600160a01b0383166116ec576116e78161189c565b61170f565b816001600160a01b0316836001600160a01b03161461170f5761170f83826118e0565b6001600160a01b03821661172b576117268161197d565b61080e565b826001600160a01b0316826001600160a01b03161461080e5761080e8282611a56565b6117588383611a9a565b6117656000848484611781565b61080e5760405162461bcd60e51b815260040161068a90612121565b6000611795846001600160a01b031661125c565b1561189157836001600160a01b031663150b7a026117b16112a2565b8786866040518563ffffffff1660e01b81526004016117d3949392919061201e565b602060405180830381600087803b1580156117ed57600080fd5b505af192505050801561181d575060408051601f3d908101601f1916820190925261181a91810190611e4c565b60015b611877573d80801561184b576040519150601f19603f3d011682016040523d82523d6000602084013e611850565b606091505b50805161186f5760405162461bcd60e51b815260040161068a90612121565b805181602001fd5b6001600160e01b031916630a85bd0160e11b1490506113ae565b506001949350505050565b600880546000838152600960205260408120829055600182018355919091527ff3f7a9fe364faab93b216da50a3214154f22a0a2b415b23a84c8169e8b636ee30155565b600060016118ed84610be1565b6118f79190612661565b60008381526007602052604090205490915080821461194a576001600160a01b03841660009081526006602090815260408083208584528252808320548484528184208190558352600790915290208190555b5060009182526007602090815260408084208490556001600160a01b039094168352600681528383209183525290812055565b60085460009061198f90600190612661565b600083815260096020526040812054600880549394509092849081106119c557634e487b7160e01b600052603260045260246000fd5b9060005260206000200154905080600883815481106119f457634e487b7160e01b600052603260045260246000fd5b6000918252602080832090910192909255828152600990915260408082208490558582528120556008805480611a3a57634e487b7160e01b600052603160045260246000fd5b6001900381819060005260206000200160009055905550505050565b6000611a6183610be1565b6001600160a01b039093166000908152600660209081526040808320868452825280832085905593825260079052919091209190915550565b6001600160a01b038216611ac05760405162461bcd60e51b815260040161068a906123d5565b611ac9816112a6565b15611ae65760405162461bcd60e51b815260040161068a906121b9565b611af2600083836116c5565b6001600160a01b0382166000908152600360205260408120805460019290611b1b908490612616565b909155505060008181526002602052604080822080546001600160a01b0319166001600160a01b03861690811790915590518392907fddf252ad1be2c89b69c2b068fc378daa952ba7f163c4a11628f55a4df523b3ef908290a45050565b828054611b85906126a4565b90600052602060002090601f016020900481019282611ba75760008555611bed565b82601f10611bc057805160ff1916838001178555611bed565b82800160010185558215611bed579182015b82811115611bed578251825591602001919060010190611bd2565b50611bf9929150611bfd565b5090565b5b80821115611bf95760008155600101611bfe565b600067ffffffffffffffff80841115611c2d57611c2d61273a565b604051601f8501601f191681016020018281118282101715611c5157611c5161273a565b604052848152915081838501861015611c6957600080fd5b8484602083013760006020868301015250509392505050565b80356001600160a01b038116811461064657600080fd5b600060208284031215611caa578081fd5b6111a682611c82565b60008060408385031215611cc5578081fd5b611cce83611c82565b9150611cdc60208401611c82565b90509250929050565b600080600060608486031215611cf9578081fd5b611d0284611c82565b9250611d1060208501611c82565b9150604084013590509250925092565b60008060008060808587031215611d35578081fd5b611d3e85611c82565b9350611d4c60208601611c82565b925060408501359150606085013567ffffffffffffffff811115611d6e578182fd5b8501601f81018713611d7e578182fd5b611d8d87823560208401611c12565b91505092959194509250565b60008060408385031215611dab578182fd5b611db483611c82565b91506020830135611dc481612750565b809150509250929050565b60008060408385031215611de1578182fd5b611dea83611c82565b946020939093013593505050565b600060208284031215611e09578081fd5b81356111a681612750565b600060208284031215611e25578081fd5b81516111a681612750565b600060208284031215611e41578081fd5b81356111a68161275e565b600060208284031215611e5d578081fd5b81516111a68161275e565b600060208284031215611e79578081fd5b813567ffffffffffffffff811115611e8f578182fd5b8201601f81018413611e9f578182fd5b6113ae84823560208401611c12565b600060208284031215611ebf578081fd5b5035919050565b600060208284031215611ed7578081fd5b5051919050565b60008151808452611ef6816020860160208601612678565b601f01601f19169290920160200192915050565b600084516020611f1d8285838a01612678565b855191840191611f308184848a01612678565b8554920191839060028104600180831680611f4c57607f831692505b858310811415611f6a57634e487b7160e01b88526022600452602488fd5b808015611f7e5760018114611f8f57611fbb565b60ff19851688528388019550611fbb565b611f988b61260a565b895b85811015611fb35781548a820152908401908801611f9a565b505083880195505b50939b9a5050505050505050505050565b6001600160a01b0391909116815260200190565b6001600160a01b0392831681529116602082015260400190565b6001600160a01b039384168152919092166020820152604081019190915260600190565b6001600160a01b038581168252841660208201526040810183905260806060820181905260009061205190830184611ede565b9695505050505050565b6001600160a01b03929092168252602082015260400190565b6020808252825182820181905260009190848201906040850190845b818110156120ac57835183529284019291840191600101612090565b50909695505050505050565b901515815260200190565b6000602082526111a66020830184611ede565b6020808252602b908201527f455243373231456e756d657261626c653a206f776e657220696e646578206f7560408201526a74206f6620626f756e647360a81b606082015260800190565b60208082526032908201527f4552433732313a207472616e7366657220746f206e6f6e20455243373231526560408201527131b2b4bb32b91034b6b83632b6b2b73a32b960711b606082015260800190565b60208082526026908201527f4f776e61626c653a206e6577206f776e657220697320746865207a65726f206160408201526564647265737360d01b606082015260800190565b6020808252601c908201527f4552433732313a20746f6b656e20616c7265616479206d696e74656400000000604082015260600190565b60208082526024908201527f4552433732313a207472616e7366657220746f20746865207a65726f206164646040820152637265737360e01b606082015260800190565b60208082526019908201527f4552433732313a20617070726f766520746f2063616c6c657200000000000000604082015260600190565b6020808252602c908201527f4552433732313a206f70657261746f7220717565727920666f72206e6f6e657860408201526b34b9ba32b73a103a37b5b2b760a11b606082015260800190565b60208082526038908201527f4552433732313a20617070726f76652063616c6c6572206973206e6f74206f7760408201527f6e6572206e6f7220617070726f76656420666f7220616c6c0000000000000000606082015260800190565b6020808252601490820152734e65656420746f20617070726f7665206d6f726560601b604082015260600190565b6020808252602a908201527f4552433732313a2062616c616e636520717565727920666f7220746865207a65604082015269726f206164647265737360b01b606082015260800190565b60208082526029908201527f4552433732313a206f776e657220717565727920666f72206e6f6e657869737460408201526832b73a103a37b5b2b760b91b606082015260800190565b6020808252818101527f4552433732313a206d696e7420746f20746865207a65726f2061646472657373604082015260600190565b6020808252602c908201527f4552433732313a20617070726f76656420717565727920666f72206e6f6e657860408201526b34b9ba32b73a103a37b5b2b760a11b606082015260800190565b6020808252818101527f4f776e61626c653a2063616c6c6572206973206e6f7420746865206f776e6572604082015260600190565b6020808252602f908201527f4552433732314d657461646174613a2055524920717565727920666f72206e6f60408201526e3732bc34b9ba30b73a103a37b5b2b760891b606082015260800190565b60208082526029908201527f4552433732313a207472616e73666572206f6620746f6b656e2074686174206960408201526839903737ba1037bbb760b91b606082015260800190565b60208082526021908201527f4552433732313a20617070726f76616c20746f2063757272656e74206f776e656040820152603960f91b606082015260800190565b60208082526031908201527f4552433732313a207472616e736665722063616c6c6572206973206e6f74206f6040820152701ddb995c881b9bdc88185c1c1c9bdd9959607a1b606082015260800190565b6020808252602c908201527f455243373231456e756d657261626c653a20676c6f62616c20696e646578206f60408201526b7574206f6620626f756e647360a01b606082015260800190565b90815260200190565b60009081526020902090565b600082198211156126295761262961270e565b500190565b60008261263d5761263d612724565b500490565b600081600019048311821515161561265c5761265c61270e565b500290565b6000828210156126735761267361270e565b500390565b60005b8381101561269357818101518382015260200161267b565b83811115610a065750506000910152565b6002810460018216806126b857607f821691505b602082108114156126d957634e487b7160e01b600052602260045260246000fd5b50919050565b60006000198214156126f3576126f361270e565b5060010190565b60008261270957612709612724565b500690565b634e487b7160e01b600052601160045260246000fd5b634e487b7160e01b600052601260045260246000fd5b634e487b7160e01b600052604160045260246000fd5b8015158114610ebe57600080fd5b6001600160e01b031981168114610ebe57600080fdfea26469706673582212207ee09ee37a983a5882b4064ccc7a2b149fee310047f1230410e9256581ee2a7464736f6c6343000800003368747470733a2f2f676174657761792e70696e6174612e636c6f75642f697066732f516d564869565a324c664669443878664156683159715251634d6d486d6673545250426d5356546e52554d4751502f",
  "immutableReferences": {},
  "source": "// SPDX-License-Identifier: GPL-3.0\r\npragma solidity >=0.8.0 <0.9.0;\r\n\r\nimport \"@openzeppelin/contracts/token/ERC721/extensions/ERC721Enumerable.sol\";\r\nimport \"@openzeppelin/contracts/access/Ownable.sol\";\r\nimport \"@openzeppelin/contracts/token/ERC20/IERC20.sol\";\r\n\r\ncontract GoodNFTimers is ERC721Enumerable, Ownable {\r\n    IERC20 public GTC;\r\n    using Strings for uint256;\r\n    string public baseURI;\r\n    string public baseExtension = \".json\";\r\n    uint256 public costONE = 420 ether;\r\n    uint256 public costGTC = 6.9 ether;\r\n    uint256 public maxSupply = 4269;\r\n    uint256 public maxMintAmount = 10;\r\n    bool public paused = false;\r\n    string public _name = \"Good NF Timers\";\r\n    string public _symbol = \"GNFT\";\r\n    string public _initBaseURI =\r\n        \"https://gateway.pinata.cloud/ipfs/QmVHiVZ2LfFiD8xfAVh1YqRQcMmHmfsTRPBmSVTnRUMGQP/\";\r\n\r\n    constructor(address GTCAddress) ERC721(_name, _symbol) {\r\n        setBaseURI(_initBaseURI);\r\n        GTC = IERC20(GTCAddress);\r\n\r\n        //mints to the initial deployer\r\n        mint(msg.sender, 2);\r\n    }\r\n\r\n    // internal\r\n    function _baseURI() internal view override returns (string memory) {\r\n        return baseURI;\r\n    }\r\n\r\n    //mint with ONE:\r\n    function mint(address _to, uint256 _mintAmount) public payable {\r\n        uint256 supply = totalSupply();\r\n        require(!paused);\r\n        require(_mintAmount > 0);\r\n        require(_mintAmount <= maxMintAmount);\r\n        require(supply + _mintAmount <= maxSupply);\r\n\r\n        if (msg.sender != owner()) {\r\n            require(msg.value >= costONE * _mintAmount);\r\n        }\r\n\r\n        for (uint256 i = 1; i <= _mintAmount; i++) {\r\n            _safeMint(_to, supply + i);\r\n        }\r\n    }\r\n\r\n    //mint with GTC:\r\n    function GTCmint(address _to, uint256 _mintAmount) public {\r\n        uint256 supply = totalSupply();\r\n        require(!paused);\r\n        require(_mintAmount > 0);\r\n        require(_mintAmount <= maxMintAmount);\r\n        require(supply + _mintAmount <= maxSupply);\r\n\r\n        uint256 priceGTC = _mintAmount * costGTC;\r\n\r\n        uint256 allowance = GTC.allowance(msg.sender, address(this));\r\n        require(allowance >= priceGTC, \"Need to approve more\");\r\n\r\n        GTC.transferFrom(msg.sender, address(this), priceGTC);\r\n\r\n        for (uint256 i = 1; i <= _mintAmount; i++) {\r\n            _safeMint(_to, supply + i);\r\n        }\r\n    }\r\n\r\n    function walletOfOwner(address _owner)\r\n        public\r\n        view\r\n        returns (uint256[] memory)\r\n    {\r\n        uint256 ownerTokenCount = balanceOf(_owner);\r\n        uint256[] memory tokenIds = new uint256[](ownerTokenCount);\r\n        for (uint256 i; i < ownerTokenCount; i++) {\r\n            tokenIds[i] = tokenOfOwnerByIndex(_owner, i);\r\n        }\r\n        return tokenIds;\r\n    }\r\n\r\n    function tokenURI(uint256 tokenId)\r\n        public\r\n        view\r\n        virtual\r\n        override\r\n        returns (string memory)\r\n    {\r\n        require(\r\n            _exists(tokenId),\r\n            \"ERC721Metadata: URI query for nonexistant token\"\r\n        );\r\n\r\n        string memory currentBaseURI = _baseURI();\r\n        return\r\n            bytes(currentBaseURI).length > 0\r\n                ? string(\r\n                    abi.encodePacked(\r\n                        currentBaseURI,\r\n                        tokenId.toString(),\r\n                        baseExtension\r\n                    )\r\n                )\r\n                : \"\";\r\n    }\r\n\r\n    //only owner\r\n    function setBaseURI(string memory _newBaseURI) public onlyOwner {\r\n        baseURI = _newBaseURI;\r\n    }\r\n\r\n    function pause(bool _state) public onlyOwner {\r\n        paused = _state;\r\n    }\r\n\r\n    function withdrawONE() public payable onlyOwner {\r\n        uint256 thisBalance = address(this).balance;\r\n        require(payable(msg.sender).send(thisBalance));\r\n    }\r\n\r\n    function withdrawGTC() public payable onlyOwner {\r\n        uint256 thisGTCBalance = GTC.balanceOf(address(this));\r\n        GTC.transfer(msg.sender, thisGTCBalance);\r\n    }\r\n}\r\n",
  "sourcePath": "C:\\Users\\brads\\Desktop\\Little projects\\Coding\\frontend_base_dapp\\contracts\\GoodNFTimers.sol",
  "compiler": {
    "name": "solc",
    "version": "0.8.0+commit.c7dfd78e.Emscripten.clang"
  },
  "schemaVersion": "3.4.3",
  "updatedAt": "2022-01-09T22:53:48.954Z",
  "networkType": "ethereum",
  "devdoc": {
    "kind": "dev",
    "methods": {
      "approve(address,uint256)": {
        "details": "See {IERC721-approve}."
      },
      "balanceOf(address)": {
        "details": "See {IERC721-balanceOf}."
      },
      "getApproved(uint256)": {
        "details": "See {IERC721-getApproved}."
      },
      "isApprovedForAll(address,address)": {
        "details": "See {IERC721-isApprovedForAll}."
      },
      "name()": {
        "details": "See {IERC721Metadata-name}."
      },
      "owner()": {
        "details": "Returns the address of the current owner."
      },
      "ownerOf(uint256)": {
        "details": "See {IERC721-ownerOf}."
      },
      "renounceOwnership()": {
        "details": "Leaves the contract without owner. It will not be possible to call `onlyOwner` functions anymore. Can only be called by the current owner. NOTE: Renouncing ownership will leave the contract without an owner, thereby removing any functionality that is only available to the owner."
      },
      "safeTransferFrom(address,address,uint256)": {
        "details": "See {IERC721-safeTransferFrom}."
      },
      "safeTransferFrom(address,address,uint256,bytes)": {
        "details": "See {IERC721-safeTransferFrom}."
      },
      "setApprovalForAll(address,bool)": {
        "details": "See {IERC721-setApprovalForAll}."
      },
      "supportsInterface(bytes4)": {
        "details": "See {IERC165-supportsInterface}."
      },
      "symbol()": {
        "details": "See {IERC721Metadata-symbol}."
      },
      "tokenByIndex(uint256)": {
        "details": "See {IERC721Enumerable-tokenByIndex}."
      },
      "tokenOfOwnerByIndex(address,uint256)": {
        "details": "See {IERC721Enumerable-tokenOfOwnerByIndex}."
      },
      "tokenURI(uint256)": {
        "details": "See {IERC721Metadata-tokenURI}."
      },
      "totalSupply()": {
        "details": "See {IERC721Enumerable-totalSupply}."
      },
      "transferFrom(address,address,uint256)": {
        "details": "See {IERC721-transferFrom}."
      },
      "transferOwnership(address)": {
        "details": "Transfers ownership of the contract to a new account (`newOwner`). Can only be called by the current owner."
      }
    },
    "version": 1
  },
  "userdoc": {
    "kind": "user",
    "methods": {},
    "version": 1
  }
}