{
  "contractName": "VotingForComp",
  "abi": [
    {
      "constant": false,
      "inputs": [
        {
          "internalType": "uint256",
          "name": "_option",
          "type": "uint256"
        }
      ],
      "name": "vote",
      "outputs": [],
      "payable": false,
      "stateMutability": "nonpayable",
      "type": "function"
    },
    {
      "constant": true,
      "inputs": [],
      "name": "seeIfVoted",
      "outputs": [
        {
          "internalType": "bool",
          "name": "",
          "type": "bool"
        }
      ],
      "payable": false,
      "stateMutability": "view",
      "type": "function"
    },
    {
      "constant": true,
      "inputs": [],
      "name": "seeVotes",
      "outputs": [
        {
          "internalType": "uint256[]",
          "name": "",
          "type": "uint256[]"
        }
      ],
      "payable": false,
      "stateMutability": "view",
      "type": "function"
    }
  ],
  "bytecode": "0x608060405234801561001057600080fd5b50610224806100206000396000f3fe608060405234801561001057600080fd5b50600436106100415760003560e01c80630121b93f1461004657806337d3b22714610065578063f734d1ab14610081575b600080fd5b6100636004803603602081101561005c57600080fd5b50356100d9565b005b61006d610181565b604080519115158252519081900360200190f35b610089610197565b60408051602080825283518183015283519192839290830191858101910280838360005b838110156100c55781810151838201526020016100ad565b505050509050019250505060405180910390f35b3360008181526002602052604090205460ff161561012e576040805162461bcd60e51b815260206004820152600d60248201526c105b1c9958591e48159bdd1959609a1b604482015290519081900360640190fd5b6001805480820182557fb10e2d527612073b26eecdfd717e6a320cf44b4afac2b0732d9fcbe2b7fa0cf601929092556001600160a01b03166000908152600260205260409020805460ff19169091179055565b3360009081526002602052604090205460ff1690565b606060018054806020026020016040519081016040528092919081815260200182805480156101e557602002820191906000526020600020905b8154815260200190600101908083116101d1575b505050505090509056fea265627a7a72315820707aadb83d82d7494c6acaae3eaeb89656e143cb057a7faba7825047e18e80fa64736f6c63430005100032",
  "source": "pragma solidity >=0.4.21;\r\n\r\ncontract VotingForComp{\r\n\r\n    uint256 option;\r\n    uint256[] votes;\r\n    mapping(address => bool) voted; \r\n    // address public sender;\r\n    //     uint [] public votes;\r\n\r\n    function vote(uint _option) public {\r\n        // uint [] public votes = votes.push(_option);\r\n        address sender = msg.sender;\r\n        require(!voted[sender],'Already Voted');\r\n        votes.push(_option);\r\n        voted[sender]=true;\r\n    }\r\n    \r\n    function seeIfVoted() public view returns(bool){\r\n        address sender = msg.sender;\r\n        return voted[sender];\r\n    }\r\n    \r\n    function seeVotes() public view returns (uint[] memory) {\r\n        return votes;\r\n    }\r\n}",
  "sourcePath": "C:\\Users\\brads\\Desktop\\Little projects\\Coding\\GTC\\contracts\\Voting.sol",
  "compiler": {
    "name": "solc",
    "version": "0.5.16+commit.9c3226ce.Emscripten.clang"
  },
  "schemaVersion": "3.4.3",
  "updatedAt": "2021-11-25T07:02:55.457Z",
  "networkType": "ethereum",
  "devdoc": {
    "methods": {}
  },
  "userdoc": {
    "methods": {}
  }
}